:100000000C943E000C945B000C945B000C945B0021
:100010000C945B000C945B000C945B000C945B00F4
:100020000C945B000C945B000C945B000C945B00E4
:100030000C945B000C94DF000C945B000C945B0050
:100040000C945B000C945B000C945B000C945B00C4
:100050000C945B000C945B000C945B000C945B00B4
:100060000C945B000C945B000C945B000C945B00A4
:100070000C945B000C945B000C945B0011241FBE7D
:10008000CFEFD0E1DEBFCDBF11E0A0E0B1E0E4EA08
:10009000F4E002C005900D92AE38B107D9F721E027
:1000A000AEE8B1E001C01D92A63EB207E1F70E94A2
:1000B00031010C9450020C94000090E041E0282F94
:1000C00030E020953095642F70E062237323672B16
:1000D00029F4440F9F5F9830B1F79FEF892F08955F
:1000E000F894E5E8F1E020E08191806882B92BB9CD
:1000F00087E893E10197F1F700C000008091940137
:100100008295880F880F807C88B987E893E10197F2
:10011000F1F700C000008091940130E4839FC0019A
:100120001124836088B92C5F2032F1F67894089509
:100130001092C5008AE08093C400E0ECF0E080817A
:100140008D7F80838EE08093C20088E18093C10020
:1001500008959091C00095FFFCCF8093C60008954C
:10016000CF93DF93EC018991811103C0DF91CF918F
:1001700008950E94A900F7CF8091C000881F8827AA
:10018000881F08958091C00087FF03C08091C6003A
:10019000089580E00895E1E8F0E080818860808340
:1001A0008AEF90E09093890080938800AFE6B0E0FA
:1001B0008C9182608C9380818360808308951F92EC
:1001C0000F920FB60F9211248F939F9383B18F3F9D
:1001D00009F440C0809183018823E1F183B18093C9
:1001E000840180919301809392011092810180910A
:1001F00093018F5F8093930180919301883010F079
:1002000010929301809190019091910101969093A9
:100210009101809390018091900190919101813F93
:10022000910558F08FEF8093820110929101109206
:10023000900110928F0110928E018091930182950E
:10024000880F807E8BB99F918F910F900FBE0F907A
:100250001F90189583B18F3F51F681E08093810103
:10026000C6CFA8950FB6F894A895809160008861D4
:1002700080936000109260000FBE0E94CB000E942D
:10028000980078948FEF81B914B893EC97B99EEFEA
:100290009AB982B983E888B91BB812B82FE78AE106
:1002A00096E0215080409040E1F700C0000080EDD2
:1002B00082B9EFE7FAE126E0E150F0402040E1F7B3
:1002C00000C000000E94700080E28093850180934E
:1002D00086018093870180938801809389018093B0
:1002E0008A0180938B0180938C018FEF98E0EDE37E
:1002F00081509040E040E1F700C000000E94700093
:1003000011E00FEFC0E287E0F82E80918001882392
:1003100009F444C010929401809184018F3FF9F058
:10032000F894809184010E945D00F8E08F9FC001E5
:100330001124E09192019C01205C3E4FE20FF32FCB
:10034000F11DD081D93C69F1D03F71F1D83CB1F5B4
:1003500010938F01009384011093830178940E947D
:10036000BC00882391F2F8940E94C20090919501FC
:1003700098300CF468C0883009F047C0809195012E
:10038000815087FD8AC080939501E09195010E2EE2
:10039000000CFF0BEB57FE4FC0836BC01093940112
:1003A000BBCF10938E01D6CF80918001882319F0A6
:1003B00010928001CFCF10938001CCCFD7FDCACF50
:1003C00020918F01222361F020918001222341F0AE
:1003D0002091920180509F4F820F911DFC01D0818E
:1003E000809182018D1709F4B5CF8D2F0E94A9004D
:1003F000D09382011092910110929001DD3009F0AA
:10040000A9CF8AE00E94A900A5CFF0929501909112
:100410008601909385019091870190938601909138
:100420008801909387019091890190938801909120
:100430008A019093890190918B0190938A01909108
:100440008C0190938B018A3011F08D30B1F4C09300
:100450008501C0938601C0938701C0938801C09332
:100460008901C0938A01C0938B01C0938C011092C3
:1004700095010E947000789448CF90919501883042
:1004800009F47CCFE92F092E000CFF0BEB57FE4F30
:1004900080839F5F90939501ECCF1092950175CF6B
:0404A000F894FFCFFE
:1004A4006162636465666768696A6B6C6D6E6F70C0
:1004B4007172737475767778797A292122BD24252F
:1004C4005E262A285F2B7B7D3A407E3C3E3F7C2083
:1004D4001112131408030DFF09C8F0FFFFFFFFFFFB
:1004E4004142434445464748494A4B4C4D4E4F5080
:1004F4005152535455565758595A30313233343572
:10050400363738392D3D5B5D3B27232C2E2F5C205D
:100514001112131408030DFF09C8C9FFFFFFFFFFE1
:0E0524000101FF01FF2D4C54363530322D0001
:00000001FF
