:100000000C943E000C945B000C945B000C945B0021
:100010000C945B000C945B000C945B000C945B00F4
:100020000C945B000C945B000C945B000C945B00E4
:100030000C945B000C94DA000C945B000C945B0055
:100040000C945B000C945B000C945B000C945B00C4
:100050000C945B000C945B000C945B000C945B00B4
:100060000C945B000C945B000C945B000C945B00A4
:100070000C945B000C945B000C945B0011241FBE7D
:10008000CFEFD0E1DEBFCDBF11E0A0E0B1E0ECE703
:10009000F4E002C005900D92A43AB107D9F721E02F
:1000A000A4EAB1E001C01D92AD3FB207E1F70E94A2
:1000B0001D010C943C020C940000282F209580E038
:1000C00091E0322F392329F4990F8F5F8830C9F7D7
:1000D0008FEF0895F894E3E8F1E020E081918068E3
:1000E00082B92BB987E893E10197F1F700C00000CE
:1000F0008091AB0130E4839FC0011124806888B9EE
:1001000087E893E10197F1F700C000008091AB010F
:1001100030E4839FC0011124836088B92C5F2032B2
:10012000E9F6789408951092C5008AE08093C4009F
:10013000E0ECF0E080818D7F80838EE08093C200D0
:1001400088E18093C10008959091C00095FFFCCF95
:100150008093C6000895CF93DF93EC0189918111BC
:1001600003C0DF91CF9108950E94A400F7CF809142
:10017000C000881F8827881F08958091C00087FFCE
:1001800003C08091C600089580E00895E1E8F0E0A2
:100190008081886080838AEF90E0909389008093CB
:1001A0008800AFE6B0E08C9182608C9380818360A0
:1001B000808308951F920F920FB60F9211248F9390
:1001C0009F9383B18F3F59F080918201882339F04A
:1001D00083B18093A9018091AA018093A8018091A5
:1001E000AA018F5F8093AA018091AA018830C0F094
:1001F0001092AA018091A6019091A7010196909377
:10020000A7018093A6018091A6019091A7014F9725
:1002100038F08FEF809381011092A7011092A60110
:100220008091AA018295880F807E8BB99F918F91D2
:100230000F900FBE0F901F901895A8950FB6F894C9
:10024000A8958091600088618093600010926000A2
:100250000FBE0E94C6000E94930078948FEF81B970
:1002600014B893EC97B99EEF9AB982B983E888B92C
:100270001BB88BE891E00E94AB0012B82FE78AE12F
:1002800096E0215080409040E1F700C0000080EDF2
:1002900082B9EFE7FAE126E0E150F0402040E1F7D3
:1002A00000C000000E946A0080E280938301809376
:1002B00084018093850180938601809387018093D8
:1002C00088018093890180938A018FEF98E0EDE3A4
:1002D00081509040E040E1F700C000000E946A00B9
:1002E00011E00FEFC0E287E0F82E809180018823B3
:1002F00009F468C01092AB018091A9018F3F09F405
:1003000042C0F8948091A9010E945D00F8E08F9F9F
:10031000C0011124E091A8019C01205C3E4FE20F36
:10032000F32FF11DD0812091A501222381F020918E
:100330008001222361F02091A80180509F4F820FFD
:10034000911DFC01D0811092A5011092A401209171
:1003500081018D2F0D2E000C990B28171906A9F17C
:100360008D2F0E94A400D09381011092A7011092BA
:10037000A601DD3051F58AE00E94A4000093A90196
:100380001093820178940E94B700882309F4ADCFBE
:10039000F8940E94BD009091AC0198300CF43FC0DD
:1003A0008830F9F48091AC01815087FD62C0809360
:1003B000AC01E091AC010E2E000CFF0BED57FE4F8F
:1003C000C08343C01093AB0197CFD33AB9F683EA09
:1003D0000E94A400D09381011092A7011092A6015F
:1003E000CDCFF092AC0190918401909383019091D4
:1003F000850190938401909186019093850190915D
:100400008701909386019091880190938701909144
:1004100089019093880190918A01909389018A3093
:1004200011F08D30B1F4C0938301C0938401C09367
:100430008501C0938601C0938701C0938801C09352
:100440008901C0938A011092AC010E946A007894DD
:100450004CCF9091AC01883009F4A4CFE92F092E3C
:10046000000CFF0BED57FE4F80839F5F9093AC0114
:0C047000ECCF1092AC019DCFF894FFCFB0
:10047C006162636465666768696A6B6C6D6E6F70E8
:10048C007172737475767778797A292122A3242571
:10049C005E262A285F2B7B7D3A407E3C3E3F7C20AB
:1004AC001112131408030D1B09C8F0CA8081828332
:1004BC004142434445464748494A4B4C4D4E4F50A8
:1004CC005152535455565758595A3031323334359A
:1004DC00363738392D3D5B5D3B27232C2E2F5C2086
:1004EC001112131408030D1B09C8C9CA8081828319
:1004FC0001FF012D4C54363530322D0D0A50433648
:10050C00353032204B657962656420616C697665A3
:04051C00210D0A00A3
:00000001FF
